{
  "address": "0xD1E879Df1B58c02fc39c76a2A5bF5196b3122189",
  "abi": [
    {
      "inputs": [
        {
          "internalType": "address",
          "name": "_feeToSetter",
          "type": "address"
        }
      ],
      "stateMutability": "nonpayable",
      "type": "constructor"
    },
    {
      "anonymous": false,
      "inputs": [
        {
          "indexed": true,
          "internalType": "address",
          "name": "token0",
          "type": "address"
        },
        {
          "indexed": true,
          "internalType": "address",
          "name": "token1",
          "type": "address"
        },
        {
          "indexed": false,
          "internalType": "address",
          "name": "pair",
          "type": "address"
        },
        {
          "indexed": false,
          "internalType": "uint256",
          "name": "",
          "type": "uint256"
        }
      ],
      "name": "PairCreated",
      "type": "event"
    },
    {
      "inputs": [
        {
          "internalType": "uint256",
          "name": "",
          "type": "uint256"
        }
      ],
      "name": "allPairs",
      "outputs": [
        {
          "internalType": "address",
          "name": "",
          "type": "address"
        }
      ],
      "stateMutability": "view",
      "type": "function"
    },
    {
      "inputs": [],
      "name": "allPairsLength",
      "outputs": [
        {
          "internalType": "uint256",
          "name": "",
          "type": "uint256"
        }
      ],
      "stateMutability": "view",
      "type": "function"
    },
    {
      "inputs": [
        {
          "internalType": "address",
          "name": "tokenA",
          "type": "address"
        },
        {
          "internalType": "address",
          "name": "tokenB",
          "type": "address"
        }
      ],
      "name": "createPair",
      "outputs": [
        {
          "internalType": "address",
          "name": "pair",
          "type": "address"
        }
      ],
      "stateMutability": "nonpayable",
      "type": "function"
    },
    {
      "inputs": [],
      "name": "feeTo",
      "outputs": [
        {
          "internalType": "address",
          "name": "",
          "type": "address"
        }
      ],
      "stateMutability": "view",
      "type": "function"
    },
    {
      "inputs": [],
      "name": "feeToSetter",
      "outputs": [
        {
          "internalType": "address",
          "name": "",
          "type": "address"
        }
      ],
      "stateMutability": "view",
      "type": "function"
    },
    {
      "inputs": [
        {
          "internalType": "address",
          "name": "",
          "type": "address"
        },
        {
          "internalType": "address",
          "name": "",
          "type": "address"
        }
      ],
      "name": "getPair",
      "outputs": [
        {
          "internalType": "address",
          "name": "",
          "type": "address"
        }
      ],
      "stateMutability": "view",
      "type": "function"
    },
    {
      "inputs": [],
      "name": "pairCodeHash",
      "outputs": [
        {
          "internalType": "bytes32",
          "name": "",
          "type": "bytes32"
        }
      ],
      "stateMutability": "pure",
      "type": "function"
    },
    {
      "inputs": [
        {
          "internalType": "address",
          "name": "_feeTo",
          "type": "address"
        }
      ],
      "name": "setFeeTo",
      "outputs": [],
      "stateMutability": "nonpayable",
      "type": "function"
    },
    {
      "inputs": [
        {
          "internalType": "address",
          "name": "_feeToSetter",
          "type": "address"
        }
      ],
      "name": "setFeeToSetter",
      "outputs": [],
      "stateMutability": "nonpayable",
      "type": "function"
    }
  ],
  "transactionHash": "0x0f81874717d510f2261b20573bdfa50d682f809c69716ec3a94fc425cb6f9294",
  "args": [
    "0x7FfB0f12692c5aE14DaC99725F4f49AEAC93EA83"
  ],
  "numDeployments": 1,
  "solcInputHash": "4a0a8926d1cd4ad11d6c4d430e31542a",
  "bytecode": "0x608060405234801561001057600080fd5b506040516130ae3803806130ae8339818101604052602081101561003357600080fd5b5051600180546001600160a01b0319166001600160a01b0390921691909117905561304b806100636000396000f3fe608060405234801561001057600080fd5b50600436106100a35760003560e01c80639aab924811610076578063c9c653961161005b578063c9c6539614610155578063e6a4390514610190578063f46901ed146101cb576100a3565b80639aab924814610118578063a2e74af614610120576100a3565b8063017e7e58146100a8578063094b7415146100d95780631e3dd18b146100e1578063574f2ba3146100fe575b600080fd5b6100b06101fe565b6040805173ffffffffffffffffffffffffffffffffffffffff9092168252519081900360200190f35b6100b061021a565b6100b0600480360360208110156100f757600080fd5b5035610236565b61010661026a565b60408051918252519081900360200190f35b610106610270565b6101536004803603602081101561013657600080fd5b503573ffffffffffffffffffffffffffffffffffffffff166102a2565b005b6100b06004803603604081101561016b57600080fd5b5073ffffffffffffffffffffffffffffffffffffffff8135811691602001351661036f565b6100b0600480360360408110156101a657600080fd5b5073ffffffffffffffffffffffffffffffffffffffff813581169160200135166107a3565b610153600480360360208110156101e157600080fd5b503573ffffffffffffffffffffffffffffffffffffffff166107d6565b60005473ffffffffffffffffffffffffffffffffffffffff1681565b60015473ffffffffffffffffffffffffffffffffffffffff1681565b6003818154811061024357fe5b60009182526020909120015473ffffffffffffffffffffffffffffffffffffffff16905081565b60035490565b600060405180602001610282906108a3565b6020820181038252601f19601f8201166040525080519060200120905090565b60015473ffffffffffffffffffffffffffffffffffffffff16331461032857604080517f08c379a000000000000000000000000000000000000000000000000000000000815260206004820152601460248201527f556e697377617056323a20464f5242494444454e000000000000000000000000604482015290519081900360640190fd5b600180547fffffffffffffffffffffffff00000000000000000000000000000000000000001673ffffffffffffffffffffffffffffffffffffffff92909216919091179055565b60008173ffffffffffffffffffffffffffffffffffffffff168373ffffffffffffffffffffffffffffffffffffffff16141561040c57604080517f08c379a000000000000000000000000000000000000000000000000000000000815260206004820152601e60248201527f556e697377617056323a204944454e544943414c5f4144445245535345530000604482015290519081900360640190fd5b6000808373ffffffffffffffffffffffffffffffffffffffff168573ffffffffffffffffffffffffffffffffffffffff161061044957838561044c565b84845b909250905073ffffffffffffffffffffffffffffffffffffffff82166104d357604080517f08c379a000000000000000000000000000000000000000000000000000000000815260206004820152601760248201527f556e697377617056323a205a45524f5f41444452455353000000000000000000604482015290519081900360640190fd5b73ffffffffffffffffffffffffffffffffffffffff82811660009081526002602090815260408083208585168452909152902054161561057457604080517f08c379a000000000000000000000000000000000000000000000000000000000815260206004820152601660248201527f556e697377617056323a20504149525f45584953545300000000000000000000604482015290519081900360640190fd5b606060405180602001610586906108a3565b6020820181038252601f19601f82011660405250905060008383604051602001808373ffffffffffffffffffffffffffffffffffffffff1660601b81526014018273ffffffffffffffffffffffffffffffffffffffff1660601b815260140192505050604051602081830303815290604052805190602001209050808251602084016000f594508473ffffffffffffffffffffffffffffffffffffffff1663485cc95585856040518363ffffffff1660e01b8152600401808373ffffffffffffffffffffffffffffffffffffffff1681526020018273ffffffffffffffffffffffffffffffffffffffff16815260200192505050600060405180830381600087803b15801561069457600080fd5b505af11580156106a8573d6000803e3d6000fd5b5050505073ffffffffffffffffffffffffffffffffffffffff84811660008181526002602081815260408084208987168086529083528185208054978d167fffffffffffffffffffffffff000000000000000000000000000000000000000098891681179091559383528185208686528352818520805488168517905560038054600181018255958190527fc2575a0e9e593c00f959f8c92f12db2869c3395a3b0502d05e2516446f71f85b90950180549097168417909655925483519283529082015281517f0d3648bd0f6ba80134a33ba9275ac585d9d315f0ad8355cddefde31afa28d0e9929181900390910190a35050505092915050565b600260209081526000928352604080842090915290825290205473ffffffffffffffffffffffffffffffffffffffff1681565b60015473ffffffffffffffffffffffffffffffffffffffff16331461085c57604080517f08c379a000000000000000000000000000000000000000000000000000000000815260206004820152601460248201527f556e697377617056323a20464f5242494444454e000000000000000000000000604482015290519081900360640190fd5b600080547fffffffffffffffffffffffff00000000000000000000000000000000000000001673ffffffffffffffffffffffffffffffffffffffff92909216919091179055565b612765806108b18339019056fe60806040526001600c5534801561001557600080fd5b50604080518082018252601081526f1c16a134ba1029bbb0b8102628102b1960811b6020918201528151808301835260018152603160f81b9082015281517f8b73c3c69bb8fe3d512ecc4cf759cc79239f7b179b0ffacaa9a75d522b39400f818301527fe847987ece64fb6d380e28ba90cbff489a50f4eea10abddd1e965267faa194ab818401527fc89efdaa54c0f20c7adf612882df0950f5a951637e0307cdcb4c672f298b8bc660608201524660808201523060a0808301919091528351808303909101815260c09091019092528151910120600355600580546001600160a01b031916331790556126578061010e6000396000f3fe608060405234801561001057600080fd5b50600436106101b95760003560e01c80636a627842116100f9578063ba9a7a5611610097578063d21220a711610071578063d21220a71461054b578063d505accf14610553578063dd62ed3e146105a4578063fff6cae9146105d2576101b9565b8063ba9a7a5614610515578063bc25cf771461051d578063c45a015514610543576101b9565b80637ecebe00116100d35780637ecebe001461047c57806389afcb44146104a257806395d89b41146104e1578063a9059cbb146104e9576101b9565b80636a6278421461042857806370a082311461044e5780637464fc3d14610474576101b9565b806323b872dd116101665780633644e515116101405780633644e515146103e2578063485cc955146103ea5780635909c0d5146104185780635a3d549314610420576101b9565b806323b872dd1461038657806330adf81f146103bc578063313ce567146103c4576101b9565b8063095ea7b311610197578063095ea7b3146103085780630dfe16811461034857806318160ddd1461036c576101b9565b8063022c0d9f146101be57806306fdde031461024c5780630902f1ac146102c9575b600080fd5b61024a600480360360808110156101d457600080fd5b8135916020810135916001600160a01b03604083013516919081019060808101606082013564010000000081111561020b57600080fd5b82018360208201111561021d57600080fd5b8035906020019184600183028401116401000000008311171561023f57600080fd5b5090925090506105da565b005b610254610b6a565b6040805160208082528351818301528351919283929083019185019080838360005b8381101561028e578181015183820152602001610276565b50505050905090810190601f1680156102bb5780820380516001836020036101000a031916815260200191505b509250505060405180910390f35b6102d1610ba3565b604080516dffffffffffffffffffffffffffff948516815292909316602083015263ffffffff168183015290519081900360600190f35b6103346004803603604081101561031e57600080fd5b506001600160a01b038135169060200135610bf8565b604080519115158252519081900360200190f35b610350610c0f565b604080516001600160a01b039092168252519081900360200190f35b610374610c1e565b60408051918252519081900360200190f35b6103346004803603606081101561039c57600080fd5b506001600160a01b03813581169160208101359091169060400135610c24565b610374610cd6565b6103cc610cfa565b6040805160ff9092168252519081900360200190f35b610374610cff565b61024a6004803603604081101561040057600080fd5b506001600160a01b0381358116916020013516610d05565b610374610daa565b610374610db0565b6103746004803603602081101561043e57600080fd5b50356001600160a01b0316610db6565b6103746004803603602081101561046457600080fd5b50356001600160a01b03166110fe565b610374611110565b6103746004803603602081101561049257600080fd5b50356001600160a01b0316611116565b6104c8600480360360208110156104b857600080fd5b50356001600160a01b0316611128565b6040805192835260208301919091528051918290030190f35b61025461153e565b610334600480360360408110156104ff57600080fd5b506001600160a01b038135169060200135611577565b610374611584565b61024a6004803603602081101561053357600080fd5b50356001600160a01b031661158a565b610350611736565b610350611745565b61024a600480360360e081101561056957600080fd5b506001600160a01b03813581169160208101359091169060408101359060608101359060ff6080820135169060a08101359060c00135611754565b610374600480360360408110156105ba57600080fd5b506001600160a01b03813581169160200135166119b8565b61024a6119d5565b600c54600114610631576040805162461bcd60e51b815260206004820152601160248201527f556e697377617056323a204c4f434b4544000000000000000000000000000000604482015290519081900360640190fd5b6000600c55841515806106445750600084115b61067f5760405162461bcd60e51b81526004018080602001828103825260258152602001806125686025913960400191505060405180910390fd5b60008061068a610ba3565b5091509150816dffffffffffffffffffffffffffff16871080156106bd5750806dffffffffffffffffffffffffffff1686105b6106f85760405162461bcd60e51b81526004018080602001828103825260218152602001806125b16021913960400191505060405180910390fd5b60065460075460009182916001600160a01b039182169190811690891682148015906107365750806001600160a01b0316896001600160a01b031614155b610787576040805162461bcd60e51b815260206004820152601560248201527f556e697377617056323a20494e56414c49445f544f0000000000000000000000604482015290519081900360640190fd5b8a1561079857610798828a8d611b87565b89156107a9576107a9818a8c611b87565b861561085b57886001600160a01b03166310d1e85c338d8d8c8c6040518663ffffffff1660e01b815260040180866001600160a01b03168152602001858152602001848152602001806020018281038252848482818152602001925080828437600081840152601f19601f8201169050808301925050509650505050505050600060405180830381600087803b15801561084257600080fd5b505af1158015610856573d6000803e3d6000fd5b505050505b604080517f70a0823100000000000000000000000000000000000000000000000000000000815230600482015290516001600160a01b038416916370a08231916024808301926020929190829003018186803b1580156108ba57600080fd5b505afa1580156108ce573d6000803e3d6000fd5b505050506040513d60208110156108e457600080fd5b5051604080517f70a0823100000000000000000000000000000000000000000000000000000000815230600482015290519195506001600160a01b038316916370a0823191602480820192602092909190829003018186803b15801561094957600080fd5b505afa15801561095d573d6000803e3d6000fd5b505050506040513d602081101561097357600080fd5b5051925060009150506dffffffffffffffffffffffffffff85168a9003831161099d5760006109b3565b89856dffffffffffffffffffffffffffff160383035b9050600089856dffffffffffffffffffffffffffff160383116109d75760006109ed565b89856dffffffffffffffffffffffffffff160383035b905060008211806109fe5750600081115b610a395760405162461bcd60e51b815260040180806020018281038252602481526020018061258d6024913960400191505060405180910390fd5b6000610a5b610a49846003611d6d565b610a55876103e8611d6d565b90611dd9565b90506000610a6d610a49846003611d6d565b9050610a99620f4240610a936dffffffffffffffffffffffffffff8b8116908b16611d6d565b90611d6d565b610aa38383611d6d565b1015610af6576040805162461bcd60e51b815260206004820152600c60248201527f556e697377617056323a204b0000000000000000000000000000000000000000604482015290519081900360640190fd5b5050610b0484848888611e31565b60408051838152602081018390528082018d9052606081018c905290516001600160a01b038b169133917fd78ad95fa46c994b6551d0da85fc275fe613ce37657fb8d5e3d130840159d8229181900360800190a350506001600c55505050505050505050565b6040518060400160405280601081526020017f382d4269742053776170204c502056320000000000000000000000000000000081525081565b6008546dffffffffffffffffffffffffffff808216926e0100000000000000000000000000008304909116917c0100000000000000000000000000000000000000000000000000000000900463ffffffff1690565b6000610c053384846120cd565b5060015b92915050565b6006546001600160a01b031681565b60005481565b6001600160a01b03831660009081526002602090815260408083203384529091528120547fffffffffffffffffffffffffffffffffffffffffffffffffffffffffffffffff14610cc1576001600160a01b0384166000908152600260209081526040808320338452909152902054610c9c9083611dd9565b6001600160a01b03851660009081526002602090815260408083203384529091529020555b610ccc84848461212f565b5060019392505050565b7f6e71edae12b1b97f4d1f60370fef10105fa2faae0126114a169c64845d6126c981565b601281565b60035481565b6005546001600160a01b03163314610d64576040805162461bcd60e51b815260206004820152601460248201527f556e697377617056323a20464f5242494444454e000000000000000000000000604482015290519081900360640190fd5b600680546001600160a01b039384167fffffffffffffffffffffffff00000000000000000000000000000000000000009182161790915560078054929093169116179055565b60095481565b600a5481565b6000600c54600114610e0f576040805162461bcd60e51b815260206004820152601160248201527f556e697377617056323a204c4f434b4544000000000000000000000000000000604482015290519081900360640190fd5b6000600c81905580610e1f610ba3565b50600654604080517f70a0823100000000000000000000000000000000000000000000000000000000815230600482015290519395509193506000926001600160a01b03909116916370a08231916024808301926020929190829003018186803b158015610e8c57600080fd5b505afa158015610ea0573d6000803e3d6000fd5b505050506040513d6020811015610eb657600080fd5b5051600754604080517f70a0823100000000000000000000000000000000000000000000000000000000815230600482015290519293506000926001600160a01b03909216916370a0823191602480820192602092909190829003018186803b158015610f2257600080fd5b505afa158015610f36573d6000803e3d6000fd5b505050506040513d6020811015610f4c57600080fd5b505190506000610f6c836dffffffffffffffffffffffffffff8716611dd9565b90506000610f8a836dffffffffffffffffffffffffffff8716611dd9565b90506000610f9887876121dd565b60005490915080610fcf57610fbb6103e8610a55610fb68787611d6d565b612324565b9850610fca60006103e8612376565b611020565b61101d6dffffffffffffffffffffffffffff8916610fed8684611d6d565b81610ff457fe5b046dffffffffffffffffffffffffffff89166110108685611d6d565b8161101757fe5b04612400565b98505b6000891161105f5760405162461bcd60e51b81526004018080602001828103825260288152602001806125fa6028913960400191505060405180910390fd5b6110698a8a612376565b61107586868a8a611e31565b81156110b1576008546110ad906dffffffffffffffffffffffffffff808216916e010000000000000000000000000000900416611d6d565b600b555b6040805185815260208101859052815133927f4c209b5fc8ad50758f13e2e1088ba56a560dff690a1c6fef26394f4c03821c4f928290030190a250506001600c5550949695505050505050565b60016020526000908152604090205481565b600b5481565b60046020526000908152604090205481565b600080600c54600114611182576040805162461bcd60e51b815260206004820152601160248201527f556e697377617056323a204c4f434b4544000000000000000000000000000000604482015290519081900360640190fd5b6000600c81905580611192610ba3565b50600654600754604080517f70a0823100000000000000000000000000000000000000000000000000000000815230600482015290519496509294506001600160a01b039182169391169160009184916370a08231916024808301926020929190829003018186803b15801561120757600080fd5b505afa15801561121b573d6000803e3d6000fd5b505050506040513d602081101561123157600080fd5b5051604080517f70a0823100000000000000000000000000000000000000000000000000000000815230600482015290519192506000916001600160a01b038516916370a08231916024808301926020929190829003018186803b15801561129857600080fd5b505afa1580156112ac573d6000803e3d6000fd5b505050506040513d60208110156112c257600080fd5b5051306000908152600160205260408120549192506112e188886121dd565b600054909150806112f28487611d6d565b816112f957fe5b049a50806113078486611d6d565b8161130e57fe5b04995060008b118015611321575060008a115b61135c5760405162461bcd60e51b81526004018080602001828103825260288152602001806125d26028913960400191505060405180910390fd5b6113663084612418565b611371878d8d611b87565b61137c868d8c611b87565b604080517f70a0823100000000000000000000000000000000000000000000000000000000815230600482015290516001600160a01b038916916370a08231916024808301926020929190829003018186803b1580156113db57600080fd5b505afa1580156113ef573d6000803e3d6000fd5b505050506040513d602081101561140557600080fd5b5051604080517f70a0823100000000000000000000000000000000000000000000000000000000815230600482015290519196506001600160a01b038816916370a0823191602480820192602092909190829003018186803b15801561146a57600080fd5b505afa15801561147e573d6000803e3d6000fd5b505050506040513d602081101561149457600080fd5b505193506114a485858b8b611e31565b81156114e0576008546114dc906dffffffffffffffffffffffffffff808216916e010000000000000000000000000000900416611d6d565b600b555b604080518c8152602081018c905281516001600160a01b038f169233927fdccd412f0b1252819cb1fd330b93224ca42612892bb3f4f789976e6d81936496929081900390910190a35050505050505050506001600c81905550915091565b6040518060400160405280600781526020017f384249542d56320000000000000000000000000000000000000000000000000081525081565b6000610c0533848461212f565b6103e881565b600c546001146115e1576040805162461bcd60e51b815260206004820152601160248201527f556e697377617056323a204c4f434b4544000000000000000000000000000000604482015290519081900360640190fd5b6000600c55600654600754600854604080517f70a0823100000000000000000000000000000000000000000000000000000000815230600482015290516001600160a01b0394851694909316926116aa92859287926116a5926dffffffffffffffffffffffffffff169185916370a0823191602480820192602092909190829003018186803b15801561167357600080fd5b505afa158015611687573d6000803e3d6000fd5b505050506040513d602081101561169d57600080fd5b505190611dd9565b611b87565b61172c81846116a56008600e9054906101000a90046dffffffffffffffffffffffffffff166dffffffffffffffffffffffffffff16856001600160a01b03166370a08231306040518263ffffffff1660e01b815260040180826001600160a01b0316815260200191505060206040518083038186803b15801561167357600080fd5b50506001600c5550565b6005546001600160a01b031681565b6007546001600160a01b031681565b428410156117a9576040805162461bcd60e51b815260206004820152601260248201527f556e697377617056323a20455850495245440000000000000000000000000000604482015290519081900360640190fd5b6003546001600160a01b0380891660008181526004602090815260408083208054600180820190925582517f6e71edae12b1b97f4d1f60370fef10105fa2faae0126114a169c64845d6126c98186015280840196909652958d166060860152608085018c905260a085019590955260c08085018b90528151808603909101815260e0850182528051908301207f19010000000000000000000000000000000000000000000000000000000000006101008601526101028501969096526101228085019690965280518085039096018652610142840180825286519683019690962095839052610162840180825286905260ff89166101828501526101a284018890526101c28401879052519193926101e2808201937fffffffffffffffffffffffffffffffffffffffffffffffffffffffffffffffe081019281900390910190855afa1580156118fd573d6000803e3d6000fd5b50506040517fffffffffffffffffffffffffffffffffffffffffffffffffffffffffffffffe001519150506001600160a01b038116158015906119515750886001600160a01b0316816001600160a01b0316145b6119a2576040805162461bcd60e51b815260206004820152601c60248201527f556e697377617056323a20494e56414c49445f5349474e415455524500000000604482015290519081900360640190fd5b6119ad8989896120cd565b505050505050505050565b600260209081526000928352604080842090915290825290205481565b600c54600114611a2c576040805162461bcd60e51b815260206004820152601160248201527f556e697377617056323a204c4f434b4544000000000000000000000000000000604482015290519081900360640190fd5b6000600c55600654604080517f70a082310000000000000000000000000000000000000000000000000000000081523060048201529051611b80926001600160a01b0316916370a08231916024808301926020929190829003018186803b158015611a9657600080fd5b505afa158015611aaa573d6000803e3d6000fd5b505050506040513d6020811015611ac057600080fd5b5051600754604080517f70a0823100000000000000000000000000000000000000000000000000000000815230600482015290516001600160a01b03909216916370a0823191602480820192602092909190829003018186803b158015611b2657600080fd5b505afa158015611b3a573d6000803e3d6000fd5b505050506040513d6020811015611b5057600080fd5b50516008546dffffffffffffffffffffffffffff808216916e010000000000000000000000000000900416611e31565b6001600c55565b604080518082018252601981527f7472616e7366657228616464726573732c75696e74323536290000000000000060209182015281516001600160a01b0385811660248301526044808301869052845180840390910181526064909201845291810180517bffffffffffffffffffffffffffffffffffffffffffffffffffffffff167fa9059cbb000000000000000000000000000000000000000000000000000000001781529251815160009460609489169392918291908083835b60208310611c8057805182527fffffffffffffffffffffffffffffffffffffffffffffffffffffffffffffffe09092019160209182019101611c43565b6001836020036101000a0380198251168184511680821785525050505050509050019150506000604051808303816000865af19150503d8060008114611ce2576040519150601f19603f3d011682016040523d82523d6000602084013e611ce7565b606091505b5091509150818015611d15575080511580611d155750808060200190516020811015611d1257600080fd5b50515b611d66576040805162461bcd60e51b815260206004820152601a60248201527f556e697377617056323a205452414e534645525f4641494c4544000000000000604482015290519081900360640190fd5b5050505050565b6000811580611d8857505080820282828281611d8557fe5b04145b610c09576040805162461bcd60e51b815260206004820152601460248201527f64732d6d6174682d6d756c2d6f766572666c6f77000000000000000000000000604482015290519081900360640190fd5b80820382811115610c09576040805162461bcd60e51b815260206004820152601560248201527f64732d6d6174682d7375622d756e646572666c6f770000000000000000000000604482015290519081900360640190fd5b6dffffffffffffffffffffffffffff8411801590611e5d57506dffffffffffffffffffffffffffff8311155b611eae576040805162461bcd60e51b815260206004820152601360248201527f556e697377617056323a204f564552464c4f5700000000000000000000000000604482015290519081900360640190fd5b60085463ffffffff428116917c010000000000000000000000000000000000000000000000000000000090048116820390811615801590611efe57506dffffffffffffffffffffffffffff841615155b8015611f1957506dffffffffffffffffffffffffffff831615155b15611fc3578063ffffffff16611f5685611f32866124aa565b7bffffffffffffffffffffffffffffffffffffffffffffffffffffffff16906124ce565b600980547bffffffffffffffffffffffffffffffffffffffffffffffffffffffff929092169290920201905563ffffffff8116611f9684611f32876124aa565b600a80547bffffffffffffffffffffffffffffffffffffffffffffffffffffffff92909216929092020190555b600880547fffffffffffffffffffffffffffffffffffff0000000000000000000000000000166dffffffffffffffffffffffffffff888116919091177fffffffff0000000000000000000000000000ffffffffffffffffffffffffffff166e0100000000000000000000000000008883168102919091177bffffffffffffffffffffffffffffffffffffffffffffffffffffffff167c010000000000000000000000000000000000000000000000000000000063ffffffff871602179283905560408051848416815291909304909116602082015281517f1c411e9a96e071241c2f21f7726b17ae89e3cab4c78be50e062b03a9fffbbad1929181900390910190a1505050505050565b6001600160a01b03808416600081815260026020908152604080832094871680845294825291829020859055815185815291517f8c5be1e5ebec7d5bd14f71427d1e84f3dd0314c0f7b2291e5b200ac8c7c3b9259281900390910190a3505050565b6001600160a01b0383166000908152600160205260409020546121529082611dd9565b6001600160a01b038085166000908152600160205260408082209390935590841681522054612181908261250f565b6001600160a01b0380841660008181526001602090815260409182902094909455805185815290519193928716927fddf252ad1be2c89b69c2b068fc378daa952ba7f163c4a11628f55a4df523b3ef92918290030190a3505050565b600080600560009054906101000a90046001600160a01b03166001600160a01b031663017e7e586040518163ffffffff1660e01b815260040160206040518083038186803b15801561222e57600080fd5b505afa158015612242573d6000803e3d6000fd5b505050506040513d602081101561225857600080fd5b5051600b546001600160a01b03821615801594509192509061231057801561230b57600061229c610fb66dffffffffffffffffffffffffffff888116908816611d6d565b905060006122a983612324565b9050808211156123085760006122cb6122c28484611dd9565b60005490611d6d565b905060006122e4836122de866005611d6d565b9061250f565b905060008183816122f157fe5b0490508015612304576123048782612376565b5050505b50505b61231c565b801561231c576000600b555b505092915050565b60006003821115612367575080600160028204015b818110156123615780915060028182858161235057fe5b04018161235957fe5b049050612339565b50612371565b8115612371575060015b919050565b600054612383908261250f565b60009081556001600160a01b0383168152600160205260409020546123a8908261250f565b6001600160a01b03831660008181526001602090815260408083209490945583518581529351929391927fddf252ad1be2c89b69c2b068fc378daa952ba7f163c4a11628f55a4df523b3ef9281900390910190a35050565b600081831061240f5781612411565b825b9392505050565b6001600160a01b03821660009081526001602052604090205461243b9082611dd9565b6001600160a01b038316600090815260016020526040812091909155546124629082611dd9565b60009081556040805183815290516001600160a01b038516917fddf252ad1be2c89b69c2b068fc378daa952ba7f163c4a11628f55a4df523b3ef919081900360200190a35050565b6dffffffffffffffffffffffffffff166e0100000000000000000000000000000290565b60006dffffffffffffffffffffffffffff82167bffffffffffffffffffffffffffffffffffffffffffffffffffffffff84168161250757fe5b049392505050565b80820182811015610c09576040805162461bcd60e51b815260206004820152601460248201527f64732d6d6174682d6164642d6f766572666c6f77000000000000000000000000604482015290519081900360640190fdfe556e697377617056323a20494e53554646494349454e545f4f55545055545f414d4f554e54556e697377617056323a20494e53554646494349454e545f494e5055545f414d4f554e54556e697377617056323a20494e53554646494349454e545f4c4951554944495459556e697377617056323a20494e53554646494349454e545f4c49515549444954595f4255524e4544556e697377617056323a20494e53554646494349454e545f4c49515549444954595f4d494e544544a2646970667358221220c638c7186b3c94ce9d70b31a25c6c8431d7971267132353004dfb5030d2db7f764736f6c634300060c0033a2646970667358221220f7392145e290b95f16ce8a7b2cbcdcaaf65c21b6320dca7288a1b06df7e1d93f64736f6c634300060c0033",
  "devdoc": {
    "kind": "dev",
    "methods": {},
    "version": 1
  },
  "userdoc": {
    "kind": "user",
    "methods": {},
    "version": 1
  },
  "storageLayout": {
    "storage": [
      {
        "astId": 397,
        "contract": "contracts/core/UniswapV2Factory.sol:UniswapV2Factory",
        "label": "feeTo",
        "offset": 0,
        "slot": "0",
        "type": "t_address"
      },
      {
        "astId": 400,
        "contract": "contracts/core/UniswapV2Factory.sol:UniswapV2Factory",
        "label": "feeToSetter",
        "offset": 0,
        "slot": "1",
        "type": "t_address"
      },
      {
        "astId": 407,
        "contract": "contracts/core/UniswapV2Factory.sol:UniswapV2Factory",
        "label": "getPair",
        "offset": 0,
        "slot": "2",
        "type": "t_mapping(t_address,t_mapping(t_address,t_address))"
      },
      {
        "astId": 411,
        "contract": "contracts/core/UniswapV2Factory.sol:UniswapV2Factory",
        "label": "allPairs",
        "offset": 0,
        "slot": "3",
        "type": "t_array(t_address)dyn_storage"
      }
    ],
    "types": {
      "t_address": {
        "encoding": "inplace",
        "label": "address",
        "numberOfBytes": "20"
      },
      "t_array(t_address)dyn_storage": {
        "base": "t_address",
        "encoding": "dynamic_array",
        "label": "address[]",
        "numberOfBytes": "32"
      },
      "t_mapping(t_address,t_address)": {
        "encoding": "mapping",
        "key": "t_address",
        "label": "mapping(address => address)",
        "numberOfBytes": "32",
        "value": "t_address"
      },
      "t_mapping(t_address,t_mapping(t_address,t_address))": {
        "encoding": "mapping",
        "key": "t_address",
        "label": "mapping(address => mapping(address => address))",
        "numberOfBytes": "32",
        "value": "t_mapping(t_address,t_address)"
      }
    }
  }
}